:1000000071C0000090C000008EC000008CC00000D5
:100010008AC0000088C0000086C0000084C00000C4
:1000200082C0000080C000007EC000007CC00000D4
:100030007AC0000078C0000076C0000074C00000E4
:1000400072C00000C5C300006EC000006CC000009C
:100050006AC0000068C0000066C0000064C0000004
:1000600062C0000060C000005EC000005CC0000014
:100070005AC0000058C0000056C0000054C0000024
:1000800052C0000050C000004EC000004CC0000034
:100090000C942D1148C0000046C0000044C0000070
:1000A00042C0000040C000003EC000003CC0000054
:1000B0003AC0000038C0000036C0000034C0000064
:1000C00032C0000030C000002EC000000C9472113D
:1000D0002AC0000028C0000026C0000024C0000084
:1000E00022C0000011241FBECFEFD1E2DEBFCDBF82
:1000F00000E00CBF13E0A0E0B2E0E0E5F0E300E0D8
:100100000BBF02C007900D92A837B107D9F72DE1B8
:10011000A8E7B3E001C01D92A33DB207E1F70E943A
:10012000A60C0C9426186CCFFC0103969283818355
:100130004FEF5FEFBA0143835483658376839087E3
:1001400087839287818710820895FC011386128627
:100150000895CF93DF939C01FB01DC011196CD91B3
:10016000DC911297D583C4838E819F819783868388
:100170008E819F81DC0115967C936E9314977F830B
:100180006E8333872287F90180818F5F8083DF91BF
:10019000CF9108950F931F93CF93DF93EB010881C5
:1001A00019812A813B810F3F4FEF14072407340741
:1001B00021F4FC01A185B28511C0DC01139601C0B8
:1001C000DF011496ED91FC91159740815181628178
:1001D0007381041715072607370790F71496ED91DA
:1001E000FC911597FD83EC83D783C683BF83AE83D1
:1001F0001596DC93CE9314979B878A87FC01208108
:100200002F5F2083DF91CF911F910F910895CF939E
:10021000DF93FC01A285B385C481D5818681978156
:100220009F838E83C681D781848195819D838C83B2
:1002300011968D919C911297E817F90731F48681F8
:10024000978112969C938E931197138612868C91A8
:1002500081508C93DF91CF910895CF93DF93E4E8A1
:10026000F3E0A0E8B3E01196FC93EE9313961C9292
:100270001E921297CF010F2E000CAA0BBB0B8459B4
:10028000984EAF4FBF4FEC0190937F0380937E0356
:100290001B821A82198218829C01245833403383AE
:1002A00022839183808330937B0320937A0330935E
:1002B0007D0320937C0380E090E890937903809302
:1002C0007803DF91CF910895CF93DF93EC01A0E8FD
:1002D000B3E001C0DF01ED91FC911197EC17FD0730
:1002E000C8F312968D919C9113979D01280F391F89
:1002F000C217D30749F42A813B81820F931F1396BB
:100300009C938E931297ED018A819B819E01280F09
:10031000391FE217F307C1F420917E0330917F0368
:10032000E217F30771F022813381820F931F9B83C1
:100330008A83ED91FC9111978081918199838883C3
:1003400005C03983288302C0F983E883CA17DB0715
:1003500011F0CD93DC93DF91CF910895EF92FF924E
:100360000F931F93CF93DF938C011FD780917E0350
:1003700090917F03892B09F470DF8091780390912D
:10038000790380239123892B09F066C0011511059B
:1003900011F00C5F1F4F0115110509F460C0809129
:1003A0007C0390917D038017910708F45BC0C09196
:1003B0008003D0918103E0E8F3E002C0FE01EC018C
:1003C0008A819B818017910720F488819981009709
:1003D000A9F780917E0390917F03C817D90709F48C
:1003E00044C0E080F18084E0E80EF11C88819981AE
:1003F000918380832A813B81201B310B2930310579
:1004000048F0CE01800F911FFC01338322831B83B0
:100410000A835ADF2A813B8180917C0390917D037E
:10042000821B930B90937D0380937C0340917A030E
:1004300050917B038417950720F490937B0380935E
:100440007A038091780390917903282B392B3B8391
:100450002A83198218820BC0E12CF12C08C0E12CF0
:10046000F12C05C0E12CF12C02C0E12CF12C72D74B
:10047000C701DF91CF911F910F91FF90EF900895E9
:100480000F931F93CF93DF93009739F1EC012497DB
:100490004A815B812091780330917903BA0162230C
:1004A0007323672BD1F068817981672BB1F4209594
:1004B0003095242335233B832A8377D68A819B81F9
:1004C00020917C0330917D03820F931F90937D03D5
:1004D00080937C03CE01F8DE3DD7DF91CF911F9151
:1004E0000F9108951092890089EF809388001092EF
:1004F00080008BE080938100EFE6F0E080818260F5
:100500008083089531E1FC013083319722E220831A
:100510003197A3E3A083319760833197708331973C
:10052000108231971082319760E860833197108292
:100530003197108231971082319762E06083319752
:1005400063E06083319764E06083319765E06083A6
:10055000319766E06083319767E06083319768E0A8
:100560006083319769E06083319760E16083319700
:100570003083319732E13083319733E130833197E3
:1005800034E13083319735E13083319736E1308380
:10059000319737E13083319738E13083319739E152
:1005A0003083319730E23083319731E230833197B5
:1005B0002083319723E22083319740833197508302
:1005C000319726E22083319727E22083319728E272
:1005D0002083319729E22083319720E320833197CC
:1005E00021E32083899708957DDFA091791BB09145
:1005F0007A1BCD91CDBFDD91DEBFFF91EF91DF91F1
:10060000CF91BF91AF919F918F917F916F915F91AA
:100610004F913F912F911F910F91FF90EF90DF909D
:10062000CF90BF90AF909F908F907F906F905F9092
:100630004F903F902F901F900F900CBE0F900BBECD
:100640000F900FBE0F90089581E008950F920FB69E
:10065000F8940F920BB60F920CB60F921F921124C2
:100660002F923F924F925F926F927F928F929F92C2
:10067000AF92BF92CF92DF92EF92FF920F931F93B0
:100680002F933F934F935F936F937F938F939F939A
:10069000AF93BF93CF93DF93EF93FF93A091791B19
:1006A000B0917A1B0DB60D920EB60D9208D7A0919F
:1006B000791BB0917A1BCD91CDBFDD91DEBFFF914B
:1006C000EF91DF91CF91BF91AF919F918F917F91EA
:1006D0006F915F914F913F912F911F910F91FF90DB
:1006E000EF90DF90CF90BF90AF909F908F907F90D2
:1006F0006F905F904F903F902F901F900F900CBE87
:100700000F900BBE0F900FBE0F9008950F920FB673
:10071000F8940F920BB60F920CB60F921F92112401
:100720002F923F924F925F926F927F928F929F9201
:10073000AF92BF92CF92DF92EF92FF920F931F93EF
:100740002F933F934F935F936F937F938F939F93D9
:10075000AF93BF93CF93DF93EF93FF93A091791B58
:10076000B0917A1B0DB60D920EB60D9224D5811163
:10077000A6D6A091791BB0917A1BCD91CDBFDD910A
:10078000DEBFFF91EF91DF91CF91BF91AF919F912C
:100790008F917F916F915F914F913F912F911F9119
:1007A0000F91FF90EF90DF90CF90BF90AF909F9010
:1007B0008F907F906F905F904F903F902F901F9001
:1007C0000F900CBE0F900BBE0F900FBE0F900895B0
:1007D0009DDF18950FB6F8940F92FC01868D81115C
:1007E00002C081E001C080E00F900FBE08950FB6F7
:1007F000F8940F92FC01268D878D281302C081E0AA
:1008000001C080E00F900FBE08950F931F93CF9308
:10081000DF93EC01042F1E8D48A141110BC088818C
:100820009981892B09F041C08A819B81C4D71B82A1
:100830001A8242C0011117C050E08C819D810E9434
:10084000421528A18C819D81820F911D9D838C83EF
:100850002A813B818217930750F1888199819D837A
:100860008C8380E029C050E08E819F810E944215D8
:1008700088A190E09195819591092E813F81280F63
:10088000391F3F832E83488159812417350730F45F
:100890002A813B81820F931F9F838E83023049F40C
:1008A000112349F0115080E007C080E005C080E0CE
:1008B00003C080E001C080E01F5F1E8FDF91CF91F9
:1008C0001F910F910895FC0140A14423A9F050E02D
:1008D00026813781240F351F3783268382819381B8
:1008E0002817390720F08081918197838683CB0177
:1008F000668177810C94421508951F93CF93DF93FF
:10090000EC010FB6F8940F921AA109C08B898823C5
:1009100041F0CE01439634D68111EBD61150111619
:10092000ACF38FEF8AA30F900FBE0FB6F8940F921F
:1009300019A109C08885882341F0CE01089620D6E8
:100940008111D7D611501116ACF38FEF89A30F90F8
:100950000FBEDF91CF911F910895CF93DF93EC01EC
:100960000FB6F8940F92E881F9818F8D90E028A15D
:1009700030E0829FA001839F500D929F500D112463
:100980004E0F5F1F5B834A831E8EFD83EC830197AE
:10099000289FA001299F500D389F500D1124CF0191
:1009A000840F951F9F838E838FEF89A38AA3611184
:1009B0000AC08885882369F0CE010896E1D588238E
:1009C00041F044DE06C0CE010896AEDBCE01439670
:1009D000ABDB0F900FBE81E0DF91CF9108950F93B5
:1009E0001F93F801611103C01183008302C051837A
:1009F0004083878F60A361E0CF01AFDF1F910F912C
:100A00000895DF92EF92FF920F931F93CF93DF939E
:100A1000E82EF62ED42E662321F0869FC0011124E5
:100A200002C080E090E0839699DCEC01009741F0F1
:100A30008C012D2DAC014D5D5F4F6F2D8E2DCFDFC5
:100A4000CE01DF91CF911F910F91FF90EF90DF903A
:100A50000895CF92DF92EF92FF920F931F93CF935F
:100A6000DF93CDB7DEB729970FB6F894DEBF0FBE80
:100A7000CDBF7C016B012E833F834887598710E0EF
:100A80000FB6F8940F92F701968D878D981710F096
:100A90000230A9F4402FB601C701B7DEF7019389F0
:100AA000992339F0C70143966BD5882321F0CEDD19
:100AB00002C08111CBDD0F900FBE81E046C08E8158
:100AC0009F81A885B985892B8A2B8B2B21F40F90C8
:100AD0000FBE80E03AC0111104C0CE01019692D53C
:100AE00011E00F900FBE61D30FB6F8940F92F7018B
:100AF00081A18F3F09F411A2F70182A18F3F09F470
:100B000012A20F900FBEBE016A5F7F4FCE01019609
:100B10008AD5811116C0C7016ADE882371F04E8123
:100B20005F8168857985C701089613D5C701E5DE21
:100B300011D48111A5CF8ADDA3CFC701DEDE0AD48F
:100B40009FCFC701DADE06D480E029960FB6F8946D
:100B5000DEBF0FBECDBFDF91CF911F910F91FF90F0
:100B6000EF90DF90CF9008950F93009769F0FC010C
:100B70001382128211821082168200E020E030E09F
:100B8000A90160E070E065DF0F910895CF93DF93D6
:100B9000482F60E081E035DFEC01E6DFCE01DF9138
:100BA000CF910895EF92FF920F931F93CF93DF930E
:100BB0008A01FC01568D378D531710F02230E1F475
:100BC000422F7801EC011AA120DE1F3F79F48B89B6
:100BD0008823A1F0CE014396D3D4882389F0E11471
:100BE000F10481F081E0F70180830DC0FF24F394CC
:100BF000F10EFAA281E007C080E005C081E003C0E9
:100C000081E001C081E0DF91CF911F910F91FF90B2
:100C1000EF9008958F929F92BF92CF92DF92EF92C2
:100C2000FF920F931F93CF93DF93CDB7DEB7299732
:100C30000FB6F894DEBF0FBECDBF7C016B012E83D3
:100C40003F8348875987B02E00E00FB6F8940F9283
:100C5000F701168D112361F186809780B601C701D7
:100C600032DEB11016C01150F701168F80819181CC
:100C7000892B21F4E0D5F70193838283F7018085E6
:100C8000882391F0C70108967BD4882369F0DEDCC5
:100C90000BC0F701978286828389882329F0C701D8
:100CA00043966ED48111D2DC0F900FBE81E058C004
:100CB0008E819F81A885B985892B8A2B8B2B21F466
:100CC0000F900FBE80E04CC0011104C0CE01019610
:100CD00099D401E00F900FBE68D20FB6F8940F922E
:100CE000F70181A18F3F09F411A2F70182A18F3F83
:100CF00009F412A20F900FBEBE016A5F7F4FCE01B2
:100D0000019691D4811123C0C70164DD8823D9F0F5
:100D1000F70180819181892B41F40FB6F8940F92ED
:100D200082819381EAD40F900FBE4E815F816885E6
:100D30007985C70143960DD4C701DFDD0BD381113F
:100D400084CF84DC82CFC701D8DD04D37ECFC70136
:100D5000D4DD00D3C7013EDD882309F476CF80E0DF
:100D600029960FB6F894DEBF0FBECDBFDF91CF91AD
:100D70001F910F91FF90EF90DF90CF90BF909F90C9
:100D80008F900895E0912A1BF0912B1B8081811197
:100D90000CC08FEF9FEFDC018093F71A9093F81A45
:100DA000A093F91AB093FA1A0895E0912A1BF091D2
:100DB0002B1B0780F085E02D0084F185E02D8281DA
:100DC0009381A481B5818093F71A9093F81AA09328
:100DD000F91AB093FA1A0895CF93DF93EC018B8D33
:100DE0009C8D4EDBCE014CDBDF91CF9108956F924D
:100DF0007F928F929F92AF92BF92CF92DF92EF92AB
:100E00000F931F93CF93DF93CDB7DEB74C01F5015E
:100E1000838D948D215031093C01620E731E20E0B8
:100E20000FC0822F90E0FB01E80FF91F3081D50140
:100E3000A80FB91F5D963C938081882319F02F5F1E
:100E4000243178F3F50110AAF4E0FE1518F4689443
:100E5000EE24E2F8F501E28EE1AA12AAC50102969B
:100E600074D9C5010E9671D9F501B386A28685E0C5
:100E700090E0A0E0B0E08E199109A109B109868740
:100E80009787A08BB18BB78AA68A13AA14AA15AA32
:100E900016AA17AAA801B401C30134DBF501918396
:100EA0008083C114D10419F0F601B182A082DF91D0
:100EB000CF911F910F91EF90DF90CF90BF90AF90A7
:100EC0009F908F907F906F900895CF93C0E008C05F
:100ED0002BE0C29FC00111248E5B944E25D9CF5FB9
:100EE000C530B0F387E39BE11FD98CE29BE11CD9AD
:100EF0008DE19BE119D982E19BE116D986E09BE166
:100F000013D987E39BE190932B1B80932A1B8CE2E0
:100F10009BE19093291B8093281BCF910895CF9339
:100F2000DF93EC010FB6F8940F928091051B8F5F51
:100F30008093051B8091791B90917A1B892B51F42A
:100F4000D0937A1BC093791B8091051B813091F45B
:100F5000BCDF10C08091FF1A81110CC0E091791B99
:100F6000F0917A1B928D8A8D891720F0D0937A1B8D
:100F7000C093791B8091FB1A8F5F8093FB1A8A8D37
:100F80009091001B981710F48093001B2BE0829F18
:100F9000C0011124BE016E5F7F4F8E5B944ED9D885
:100FA0000F900FBE8091FF1A882349F0E091791BC2
:100FB000F0917A1B928D8A8D981708F447DBDF91A8
:100FC000CF9108958F929F92AF92BF92CF92DF926E
:100FD000EF92FF92CF936B017C01C42F8090011B95
:100FE0009090021BA090031BB090041B8091791B72
:100FF00090917A1B02960BD98FEFC816D806E80697
:10100000F80661F4CC2351F06091791B70917A1B42
:101010006E5F7F4F86E09BE19CD83DC0C80CD91C19
:10102000EA1CFB1CE091791BF0917A1BC282D382EF
:10103000E482F582C814D904EA04FB0460F46091E8
:10104000791B70917A1B8091281B9091291B6E5FF0
:101050007F4FA0D820C06091791B70917A1B80913E
:101060002A1B90912B1B6E5F7F4F94D88091F71AAB
:101070009091F81AA091F91AB091FA1AC816D906E7
:10108000EA06FB0640F4C092F71AD092F81AE092F2
:10109000F91AF092FA1ACF91FF90EF90DF90CF906B
:1010A000BF90AF909F908F9008952F923F924F9254
:1010B0005F926F927F928F929F92AF92BF92CF92E8
:1010C000DF92EF92FF920F931F93CF93DF933C0138
:1010D0001B015A012901CA0141D96C01892B61F018
:1010E00088E390E03BD9EC01892B19F0DC8ECB8EA4
:1010F00005C0C601C5D902C0C0E0D0E0209781F08C
:10110000950140E050E0812C912C5E016701E02EBA
:101110008201B101C3016BDECE0101DF81E001C0BC
:101120008FEFDF91CF911F910F91FF90EF90DF90A4
:10113000CF90BF90AF909F908F907F906F905F9077
:101140004F903F902F900895EF92FF920F930F2EA4
:10115000F5EFEF2EFAE1FF2EF02D00E020E030E079
:1011600040E054E060E072E088E59AE09EDF813084
:10117000C1F4F8948FEF9FEFDC018093F71A9093FE
:10118000F81AA093F91AB093FA1A81E08093FF1A23
:101190001092011B1092021B1092031B1092041B51
:1011A00023DA0F91FF90EF9008958091F41A8F5FEA
:1011B0008093F41A0895BF92CF92DF92EF92FF923C
:1011C0000F931F93CF93DF938091F41A8111A8C0DE
:1011D000C090011BD090021BE090031BF090041BF9
:1011E0002FEFC21AD20AE20AF20AC092011BD09271
:1011F000021BE092031BF092041BC114D104E10412
:10120000F104B1F480912A1B90912B1B2091281B93
:101210003091291B30932B1B20932A1B9093291B61
:101220008093281B8091FC1A8F5F8093FC1AAADDA3
:101230008091F71A9091F81AA091F91AB091FA1AC0
:10124000C816D906EA06FB0628F4B12C5AC0BB24FE
:10125000B39401C0B12CE0912A1BF0912B1B80812B
:1012600081110CC08FEF9FEFDC018093F71A9093F0
:10127000F81AA093F91AB093FA1A43C0E0912A1B06
:10128000F0912B1B0780F085E02DC085D1858A81E8
:101290009B81AC81BD81C816D906EA06FB0648F4DD
:1012A0008093F71A9093F81AA093F91AB093FA1A48
:1012B00028C08E010E5F1F4FC8010E940701888D54
:1012C000998D892B21F0CE010E960E9407018A8DFF
:1012D0009091001B981710F48093001B2BE0829FC5
:1012E000C0011124B8018E5B944E0E94A9009A8D12
:1012F000E091791BF0917A1B828D981708F0A7CFA7
:10130000AACFE091791BF0917A1BE28D8BE0E89FE8
:10131000F0011124EE5BF44E8081823040F409C06C
:101320008091FE1A8F5F8093FE1AB12C02C0BB24FD
:10133000B3948091FD1A882311F0BB24B3948B2DB4
:10134000DF91CF911F910F91FF90EF90DF90CF90A1
:10135000BF9008950F931F93CF93DF930FB6F89428
:101360000F928091F41A81508093F41A8091F41AAC
:1013700081114FC08091051B81112DC04DC0E0919E
:10138000241BF091251BC085D185CE010E960E94AD
:1013900007018E010E5F1F4FC8010E9407018A8D51
:1013A0009091001B981710F48093001B2BE0829FF4
:1013B000C0011124B8018E5B944E0E94A9009A8D41
:1013C000E091791BF0917A1B828D981730F081E0C3
:1013D0008093FD1A02C0C0E0D0E080911D1B8111F6
:1013E000CECFCD2B09F0CEDCC091FE1ACC2351F02C
:1013F000E2DE882319F081E08093FD1AC150C1F725
:101400001092FE1A8091FD1A882329F01FD981E0DD
:1014100003C080E001C080E00F900FBEDF91CF914C
:101420001F910F910895CF92DF92EF92FF926B017F
:101430007C01672B682B692B39F0B7DE40E0C701D0
:10144000B601C0DD87DF01C080E0811101C0FED898
:10145000FF90EF90DF90CF900895CF93DF9321C05E
:10146000A4DEC091121B76DFCC23D9F00FB6F8941E
:101470000F92E091191BF0911A1BC085D185CE0106
:1014800002960E9407018091051B81508093051BE5
:101490008091111B81508093111B0F900FBECE01C4
:1014A0009BDC8091111B8111DBCFDF91CF910895DF
:1014B000D4DF8091421B8230D8F3C8D8F9CF809115
:1014C000F41A882321F081E08093FD1A0895109288
:1014D000FD1A8091001B01C08150282F30E09BE055
:1014E000929FF001939FF00D1124EE5BF44E9081DA
:1014F000992391F39BE0929FA001939F500D11249B
:10150000DF010180F281E02D0480F581E02D12964B
:10151000FC93EE9311974B5B544EE417F50729F4B7
:1015200044815581FD01528341839BE0929FF001EC
:10153000939FF00D1124EE5BF44E0180F281E02DBB
:101540002085318530937A1B2093791B8093001B73
:101550000895CF92DF92EF92FF926A017B01609132
:10156000791B70917A1B625F7F4F0E94CA0041E035
:10157000C701B60127DDFF90EF90DF90CF9008956F
:101580000F931F93CF93DF93DC011796ED91FC919E
:101590001897C085D1858E01025F1F4FC8010E9438
:1015A00007018091F41A811116C00C501109C8016D
:1015B0000E9407018A8D9091001B981710F4809368
:1015C000001BBBE08B9FC0011124B8018E5B944EC1
:1015D0000E94A90005C0B8018DE19BE10E94A9000D
:1015E0009A8DE091791BF0917A1B828D891720F4F6
:1015F00081E08093FD1A01C080E0DF91CF911F91BF
:101600000F9108952091FC1AFC0120834091011B49
:101610005091021B6091031B7091041B4183528304
:101620006383748308958F929F92AF92BF92CF92FB
:10163000DF92EF92FF920F931F93CF93DF93FB0103
:101640000FB6F8940F920091011B1091021B20918C
:10165000031B3091041B40815181628173814F3F94
:10166000AFEF5A076A077A0781F1EC01B881A091C0
:10167000FC1ABA1749F0C980DA80EB80FC800C159F
:101680001D052E053F0518F5DC011196CD90DD9066
:10169000ED90FC901497480159018C189D08AE08F4
:1016A000BF0884169506A606B70698F4C01AD10A94
:1016B000E20AF30A4C0D5D1D6E1D7F1D40835183B0
:1016C000628373839FDF80E005C080E003C081E018
:1016D00001C081E00F900FBEDF91CF911F910F915C
:1016E000FF90EF90DF90CF90BF90AF909F908F9042
:1016F000089581E08093FD1A08950F931F93CF936F
:10170000DF93FC01892B09F451C0828DA091791BD4
:10171000B0917A1B5A969C91891708F047C046856C
:10172000578560897189772394F0A091791BB091D6
:101730007A1B5A969C9145E050E060E070E0491BAE
:1017400051096109710946875787608B718B248520
:1017500035854BE0849FC00111248E5B944E281781
:101760003907E9F48F01EF012296CE010E940701AB
:10177000E091791BF0917A1B828DF801828F909114
:10178000001B981710F48093001BFBE08F9FC00193
:101790001124BE018E5B944E0E94A90007C0A09147
:1017A000791BB0917A1B5A968C91828FDF91CF91E1
:1017B0001F910F9108950F931F93CF93DF93FC0117
:1017C000892B79F182A9815082AB228D91A92917A9
:1017D00051F181112AC0EF018F010E5F1F4FC80127
:1017E0000E94070189A98A8F45E050E060E070E01F
:1017F000481B5109610971094E875F87688B798B96
:101800009091001B981710F48093001B2BE0829F8F
:10181000C0011124B8018E5B944E0E94A90081E0A2
:1018200005C080E003C080E001C080E0DF91CF917F
:101830001F910F9108958091791B90917A1B892BAC
:1018400039F0E091791BF0917A1B82A98F5F82AB0E
:101850008091791B90917A1B08950F931F93CF93DA
:10186000DF93CDB7DEB76E970FB6F894DEBF0FBE2D
:10187000CDBF789487E690E07FD459D3D4D25ED29E
:10188000A0D224D685E092E092D48EE092E08FD46C
:1018900081E292E08CD47CD51F928F938FE392E00B
:1018A0009F938F938E010F5F1F4F1F930F930E9483
:1018B0004B15C8017CD4CED01F928F938CE492E05C
:1018C0009F938F931F930F930E944B15C8016FD462
:1018D00082D21F928F9389E592E09F938F931F93FB
:1018E0000F930E944B15C80162D4EBD286D22FEF22
:1018F00089E698E1215080409040E1F700C0000067
:1019000010D386D2F6D22FEF89E698E1215080409D
:101910009040E1F700C0000004D32FEF83ED90E387
:10192000215080409040E1F700C000000FB6F894CD
:10193000DEBF0FBECDBF6E960FB6F894DEBF0FBEF2
:10194000CDBFDF91CF911F910F91089586DF81E088
:101950001DD99093931C8093921C40E061E08EE12E
:1019600050D89093D21C8093D11C40E061E08AE073
:1019700048D89093CA1C8093C91C40E064E08AE078
:1019800040D89093D01C8093CF1CE12CF12C02E026
:1019900020E030E044EF51E066E672E08EEC9FE03C
:1019A00084DB8BE892E003D4CFDBFFCFCF92DF92D2
:1019B000EF92FF920F931F93CF93DF93C82F6B018A
:1019C0007A0184E0BED28C2F8068D2D280E0D0D25F
:1019D000C0E0D0E008C086010C0F1D1F80E0C8D217
:1019E000F80180832196CE15DF05A8F384E0B5D2F7
:1019F000DF91CF911F910F91FF90EF90DF90CF90EB
:101A000008951F93CF93DF93182FEB0184E099D2B1
:101A1000812F8068ADD280E0ABD280E0A9D28883EC
:101A200084E09BD2DF91CF911F910895CF93DF93F4
:101A3000D82FC62F84E085D28D2F8F7799D28C2F07
:101A400097D284E08AD2DF91CF910895BC0180E0E3
:101A5000D8CF0895CF93DF931F92CDB7DEB7CE01D5
:101A60000196F4DF81E09981903609F080E00F90D3
:101A7000DF91CF910895EF92FF920F931F93CF9331
:101A8000DF93EC01698170E0762F66278881682BEF
:101A90000F2EF5E4EF2EFCE1FF2EF02DF701718300
:101AA000608380E090E0FDD620E030E040E853E441
:101AB00086D70AE51CE1F8016083718382839383F2
:101AC0006B8170E0762F66278A81682BF70173831C
:101AD000628380E090E0E5D620E030E040E850E32B
:101AE0006ED7F80164837583868397836C81F701D1
:101AF0006483062E000C770B880B990BD4D620E05C
:101B000030E040E857E25BD7F80160877187828751
:101B100093876E8170E0762F66278D81682BF701A1
:101B2000768365837054072E000C880B990BBBD607
:101B300020E030E040E855E342D7F801648775873C
:101B400086879787688570E0762F66278F81682B58
:101B5000F701708767837054072E000C880B990B70
:101B6000A2D620E030E040E051E329D7F801608BB5
:101B7000718B828B938B6985F7016187062E000C30
:101B8000770B880B990B8FD620E030E040E85FE2BE
:101B900016D7F801648B758B868B978B6A85F70156
:101BA0006287062E000C770B880B990B7CD620E001
:101BB00030E040E05DE203D7F801608F718F828FE3
:101BC000938F6C8570E0762F66278B85682BF701E5
:101BD0007487638780E090E064D620E030E040E0E6
:101BE00051E4EDD6F801648F758F868F978F6E85DF
:101BF00070E0762F66278D85682BF70176876587DD
:101C000080E090E04ED620E030E040E85CE3D7D6BC
:101C1000F80160A371A382A393A36F85F70167877F
:101C2000062E000C770B880B990B3DD620E030E098
:101C300040E85BE3C4D6F80164A375A386A397A329
:101C40006889F701608B062E000C770B880B990BC7
:101C50002AD620E030E040E058E3B1D6F80160A792
:101C600071A782A793A76A8970E0762F6627898972
:101C7000682BF701728B618B072E000C880B990B78
:101C800012D620E030E040E857E299D6F80164A788
:101C900075A786A797A76B89F701638B062E000CA3
:101CA000770B880B990BFFD520E030E040E857E236
:101CB00086D6F80160AB71AB82AB93AB6C89F70150
:101CC000648B062E000C770B880B990BECD520E06B
:101CD00030E040E05FE173D6F80164AB75AB86ABF2
:101CE00097ABDF91CF911F910F91FF90EF900895E7
:101CF0000F931F93CF93DF93CDB7DEB765970FB6E2
:101D0000F894DEBF0FBECDBF8E010F5F1F4F85E180
:101D1000F80111928A95E9F745E150E0B80181E3B5
:101D200045DEC801A8DE65960FB6F894DEBF0FBE8B
:101D3000CDBFDF91CF911F910F91089563E08CE1AA
:101D400075DE62E08DE172DE63E38BE16FDED0CFA2
:101D50000895EF92FF920F931F93CF93DF93C82FB5
:101D60008B017A0167D089E271D08C2F88D062D044
:101D700089E277D0C0E0D0E005C0C8018C0F9D1F7C
:101D800094D02196C7010197C817D907B0F3800FE7
:101D9000911F7FD057D0DF91CF911F910F91FF906E
:101DA000EF900895CF93DF93D82FC62F43D089E2C9
:101DB0004DD08D2F64D08C2F62D044D0DF91CF9145
:101DC00008956CE08DE3EECF089541E050E0BC0152
:101DD00086E3BFCF0895CF93DF931F92CDB7DEB7D1
:101DE000CE010196F2DF99819F7081E09F3009F06A
:101DF00080E00F90DF91CF910895EAE0F1E08081DB
:101E000080628083EBE0F1E08081806280830895CE
:101E1000EAE0F1E080818F7D8083EBE0F1E080817A
:101E20008F7D808308958CE08093B80084E0809358
:101E3000BC00089584EA8093BC008091BC00882394
:101E4000E4F7089584E98093BC000895880F809397
:101E5000BB0084E88093BC008091BC008823E4F739
:101E6000089590E0880F991F81608093BB0084E8FB
:101E70008093BC008091BC008823E4F70895809390
:101E8000BB0084E88093BC008091BC008823E4F709
:101E90000895FC0184E88093BC009091BC009923D4
:101EA000E4F78091BB0080830895FC0184EC80936B
:101EB000BC009091BC009923E4F78091BB00808323
:101EC0000895EAE0F1E080818061808382E280937E
:101ED00020018BE18093210187E893E19093270112
:101EE000809326018AEF90E090932B0180932A0142
:101EF0000895EAE0F1E080818061808382E280934E
:101F000020018BE18093210187E893E190932701E1
:101F10008093260184EF91E090932B0180932A0116
:101F20000895EAE0F1E080818F7E8083089587E064
:101F300084B988E181B981E58CBD82B1886182B9BB
:101F4000089592B121E030E002C0220F331F8A953C
:101F5000E2F72095292322B9089592B121E030E0DB
:101F600002C0220F331F8A95E2F7292B22B9089568
:101F70008EBD0DB407FEFDCF8EB50895AC0120E0F7
:101F800030E080E007C0FA01E20FF31F908189275B
:101F90002F5F3F4F26173707B0F30895CF93DF9396
:101FA000CDB7DEB76E970FB6F894DEBF0FBECDBFCC
:101FB0008CEB9BE108D1ECEBFBE1008110E0F180C0
:101FC000B8018DEB9BE1DADFF801E354F44E908128
:101FD0008913ADC083E0F816E9F18F1538F091E070
:101FE000F91679F082E0F816D9F096C095E0F91666
:101FF00009F450C0F916F0F186E0F81609F45AC059
:102000008BC0198200E02FEF3FEFA901BE016F5F87
:102010007F4F8091C91C9091CA1C0E9429058AC0DB
:102020008091BE1B9091BF1BA091C01BB091C11BA2
:1020300089839A83AB83BC8300E02FEF3FEFA90134
:10204000BE016F5F7F4F8091CF1C9091D01C0E948A
:10205000290570C084E0898300E02FEF3FEFA901DC
:10206000BE016F5F7F4F8091C91C9091CA1C0E9476
:10207000290560C085E0898300E02FEF3FEFA901CB
:10208000BE016F5F7F4F8091C91C9091CA1C0E9456
:10209000290550C089E992E08AD001501109A801B0
:1020A0006EEB7BE18BE79BE1EDD4B8018BE79BE125
:1020B000FFD240C08AEA92E07AD0680192E0C91A61
:1020C000D108A6016EEB7BE18BE79BE1DBD4F80145
:1020D000E454F44E10811F921F9389EB92E09F937A
:1020E0008F93CE0101965C019F938F93D4D4C50149
:1020F0005ED0B6018BE79BE1DBD2812F7BD34CE234
:1021000051E060E070E0CB01E3D10F900F900F90B1
:102110000F900F900F900EC083ED92E048D064E1D5
:1021200070E08CEB9BE100D1FF24FA9403C08BEEAE
:1021300092E03DD09FEFF916C9F000E02FEF3FEF9E
:10214000A90160E070E08091921C9091931C0E9424
:102150000A06F092C71C20E030E0A90160E070E0C0
:102160008091921C9091931C0E9429056CE271E071
:1021700080E090E058D91CCF9093C5008093C400B4
:1021800028E12093C10026E02093C2009093CD0067
:102190008093CC0088E98093C9002093CA000895F9
:1021A0009091C00095FFFCCF8093C6000895CF9317
:1021B000DF93EC0102C0F4DF219688818111FBCF0F
:1021C000DF91CF910895CF92DF92EF92FF920F931C
:1021D000CF93DF931F92CDB7DEB76C0100E02FEFF6
:1021E0003FEFA901BE016F5F7F4F8091D11C90919D
:1021F000D21C0E940A06813089F789818F3F71F7CE
:102200002FEF3FEFA901B6018091D11C9091D21C14
:102210000E940A06E12CF12C10C08FEFE81AF80A90
:10222000B6016E0D7F1D00E02FEF3FEFA9018091F9
:10223000D11C9091D21C0E940A06F601808190E088
:102240000196E816F90648F30F90DF91CF910F91B0
:10225000FF90EF90DF90CF9008951F920F920FB6EE
:102260000F9211240BB60F922F933F934F935F93CE
:102270006F937F938F939F93AF93BF93EF93FF934E
:10228000CF93DF931F921F92CDB7DEB78091CE0020
:1022900089831A8220E0AE014E5F5F4FBE016F5FFF
:1022A0007F4F8091D11C9091D21C0E94D2058A81CF
:1022B00081110E9426030F900F90DF91CF91FF9123
:1022C000EF91BF91AF919F918F917F916F915F91AE
:1022D0004F913F912F910F900BBE0F900FBE0F901B
:1022E0001F9018951F920F920FB60F9211240BB6E4
:1022F0000F928F939F93EF93FF938091D600E0917D
:10230000201C91E09E0F9093201CF0E0E75DF34EBF
:102310008083FF91EF919F918F910F900BBE0F9053
:102320000FBE0F901F9018950F931F93CF93DF93BD
:10233000EC018C01060F171F02C0899131DFC01715
:10234000D107D8F3DF91CF911F910F910895EF92AC
:10235000FF920F931F93CF93DF937C018B01EA01D0
:1023600083E0EFDD8FE904DE80E002DEF7018083A9
:1023700080E0FEDDF801808380E0FADD888383E081
:10238000ECDDDF91CF911F910F91FF90EF900895B9
:10239000CF93DF9300D0CDB7DEB7AE014D5F5F4F77
:1023A000BE016E5F7F4FCE010196D1DF81E0998142
:1023B0009F3E09F080E00F900F900F90DF91CF913A
:1023C0000895CF92DF92EF92FF920F931F93CF93D6
:1023D000DF93C62FD72F182F6A01790183E0B1DD73
:1023E00083E0C6DD812FC4DD8D2FC2DD8C2FC0DDE3
:1023F000C0E0D0E008C086010C0F1D1F80E0B8DDF2
:10240000F80180832196CE15DF05A8F383E0A5DDD2
:10241000DF91CF911F910F91FF90EF90DF90CF90C0
:102420000895CF9383E08DDD85E0A2DD80E0A0DD1F
:10243000C82F83E092DD8C2FCF91089583E081DD5A
:1024400086E096DD83E089DDECDF81FFFDCF089536
:10245000DF92EF92FF920F931F93CF93DF93C62FDC
:10246000D72FD82E7A01890188E093E0A0DEE6DF3D
:1024700083E067DD82E07CDD8D2D7ADD8D2F78DDD8
:102480008C2F76DDC0E0D0E006C0F701EC0FFD1F19
:1024900080816EDD2196C017D107B8F383E05DDD42
:1024A000C0DF80FDFDCFDF91CF911F910F91FF9095
:1024B000EF90DF900895C2DF83E043DD80E658DDD2
:1024C00083E04BDDAEDF80FDFDCF0895F4CF0895AE
:1024D0004F925F926F927F928F929F92AF92BF9234
:1024E000CF92DF92EF92FF920F931F93CF93DF93E0
:1024F000CDB7DEB7A8970FB6F894DEBF0FBECDBF3D
:10250000162F072FF82EE92E3A014DB65EB68DB77D
:102510009EB7841B950B0FB6F8949EBF0FBE8DBF60
:102520004DB75EB74F5F5F4F5A0193018F2D9E2DC0
:1025300048DFEF92FF920F931F9386E193E09F9302
:102540008F938E010F5F1F4F1F930F93A4D2C8016B
:102550002EDE8DB79EB708960FB6F8949EBF0FBEBD
:102560008DBF812C912CC12CD12C46C0C401880F69
:10257000991F880F991F880F991F9F938F9386E348
:1025800093E09F938F938E010D5D1F4F1F930F93C9
:1025900082D2C8010CDE0F900F900F900F900F9019
:1025A0000F90E12CF12C1EC0F501EC0DFD1D80817A
:1025B0001F928F938DE393E09F938F938E010D5D18
:1025C0001F4F1F930F9367D29FEFC91AD90AC801F3
:1025D000EEDD8FEFE81AF80A0F900F900F900F9032
:1025E0000F900F9098E0E916F104F4F285E493E07F
:1025F000DEDD8FEF881A980AC301019796958795BB
:10260000969587959695879501968816990608F46C
:10261000ADCF0FB6F8945EBE0FBE4DBEA8960FB6F6
:10262000F894DEBF0FBECDBFDF91CF911F910F9108
:10263000FF90EF90DF90CF90BF90AF909F908F90E2
:102640007F906F905F904F9008951F93CF93DF938B
:10265000C62FD72F182FF2DE83E073DC88ED88DCDD
:10266000812F86DC8D2F84DC8C2F82DC83E075DC6F
:10267000D8DE80FDFDCFDF91CF911F910895CF92DD
:10268000DF92EF92FF92C12CD12C760106C0C701D8
:10269000B601DBDF8FEFE81AF80AC114D10480E23B
:1026A000E806F104A0F3FF90EF90DF90CF9008953B
:1026B000DF92EF92FF920F931F93CF93DF93EC0182
:1026C0008B015CDC9091221C89278093221C8091D5
:1026D000271C9091281C800F911F8130914008F495
:1026E0007CC089E493E063DDD090271CD19420E086
:1026F00030E013C08091271C9091281CFE01E20F4E
:10270000F31F4081FC01ED52F34E408301969093FC
:10271000281C8093271C2F5F3F4FED2CF12C80E06D
:1027200091E08E199F092817390724F36091231C23
:102730007091241C8091251C9091261C20E031E092
:1027400043ED5CE185DE8091231C9091241CA091D7
:10275000251CB091261C9F5FAF4FBF4F8093231C59
:102760009093241CA093251CB093261C1092281C27
:102770001092271C20E030E015C08091271C90911A
:10278000281CF901EE0DFF1DEC0FFD1F4081FC011F
:10279000ED52F34E408301969093281C8093271CA2
:1027A0002F5F3F4FC8018D1991092817390728F36A
:1027B00019C08091271C9091281CFE01E20FF31F85
:1027C0004081FC01ED52F34E408301969093281C0A
:1027D0008093271C2F5F3F4F02C020E030E020177E
:1027E000310738F3DF91CF911F910F91FF90EF9058
:1027F000DF900895FF920F931F93CF93DF93CDB790
:10280000DEB76E970FB6F894DEBF0FBECDBFF82EC1
:102810002091271C3091281C2115310559F0609119
:10282000231C7091241C8091251C9091261C43ED43
:102830005CE10EDE1092231C1092241C1092251CC9
:102840001092261C1092281C1092271C8091221C8A
:102850001F928F938BE593E09F938F938E010F5F71
:102860001F4F1F930F9317D1C801A1DC8091221C29
:102870000F900F900F900F900F900F908F1104C03A
:1028800081E08093211C01C0FADE6E960FB6F894A9
:10289000DEBF0FBECDBFDF91CF911F910F91FF9093
:1028A0000895E89409C097FB3EF490958095709543
:1028B00061957F4F8F4F9F4F9923A9F0F92F96E98C
:1028C000BB279395F695879577956795B795F11101
:1028D000F8CFFAF4BB0F11F460FF1BC06F5F7F4F9E
:1028E0008F4F9F4F16C0882311F096E911C07723B0
:1028F00021F09EE8872F762F05C0662371F096E8B9
:10290000862F70E060E02AF09A95660F771F881F87
:10291000DAF7880F9695879597F9089597F99F6745
:1029200080E870E060E008959FEF80EC0895002457
:102930000A941616170618060906089500240A9424
:1029400012161306140605060895092E0394000CAA
:1029500011F4882352F0BB0F40F4BF2B11F460FF39
:1029600004C06F5F7F4F8F4F9F4F089557FD905862
:10297000440F551F59F05F3F71F04795880F97FB43
:10298000991F61F09F3F79F08795089512161306FD
:102990001406551FF2CF4695F1DF08C0161617062C
:1029A0001806991FF1CF8695710561050894089561
:1029B000E894BB2766277727CB0197F908950BD0BA
:1029C000C4CFB5DF28F0BADF18F0952309F0A6CF01
:1029D000ABCF1124EECFCADFA0F3959FD1F3950FB3
:1029E00050E0551F629FF001729FBB27F00DB11D93
:1029F000639FAA27F00DB11DAA1F649F6627B00D23
:102A0000A11D661F829F2227B00DA11D621F739F0B
:102A1000B00DA11D621F839FA00D611D221F749F19
:102A20003327A00D611D231F849F600D211D822F60
:102A3000762F6A2F11249F5750408AF0E1F08823A7
:102A40004AF0EE0FFF1FBB1F661F771F881F9150B4
:102A50005040A9F79E3F510570F060CFAACF5F3F6D
:102A6000ECF3983EDCF3869577956795B795F795E7
:102A7000E7959F5FC1F7FE2B880F911D969587956F
:102A800097F90895FB01DC0102C001900D924150BD
:102A90005040D8F708950F931F93CF93DF93CDB78E
:102AA000DEB72E970FB6F894DEBF0FBECDBF0E89EE
:102AB0001F8986E08C831A8309838FEF9FE79E83AB
:102AC0008D83AE01465E5F4F688D798DCE01019694
:102AD00010D0EF81F885E00FF11F10822E960FB60F
:102AE000F894DEBF0FBECDBFDF91CF911F910F9144
:102AF00008952F923F924F925F926F927F928F92A2
:102B00009F92AF92BF92CF92DF92EF92FF920F937C
:102B10001F93CF93DF93CDB7DEB72B970FB6F89403
:102B2000DEBF0FBECDBF6C017B018A01FC011782A5
:102B30001682838181FFBFC1CE0101963C01F6015F
:102B40009381F70193FD859193FF81917F01882304
:102B500009F4ADC1853239F493FD859193FF8191DC
:102B60007F01853221F4B60190E0D6D1E8CF912CD7
:102B7000212C312CFFE1F315D8F08B3279F038F4A9
:102B8000803279F08332A1F4232D20611DC08D3273
:102B900061F0803369F4232D216016C0832D82609B
:102BA000382EE32DE4603E2E2AC0F32DF8601DC0C0
:102BB00037FC2DC020ED280F2A3040F08E32B9F4BA
:102BC00036FC75C1232D2064322E19C036FE06C096
:102BD0008AE0989E200D1124922E11C0EAE02E9ECC
:102BE000200D1124222EF32DF0623F2E08C08C36CA
:102BF00021F4832D8068382E02C0883641F4F70115
:102C000093FD859193FF81917F018111B3CF982F1F
:102C10009F7D9554933028F40C5F1F4F9FE3998359
:102C20000DC0833631F0833771F0833509F055C01C
:102C300020C0F801808189830E5F1F4F8824839410
:102C4000912C530112C02801F2E04F0E511CF801E3
:102C5000A080B18036FE03C0692D70E002C06FEF26
:102C60007FEFC5014ED14C018201F32DFF773F2E3E
:102C700015C0280122E0420E511CF801A080B1804D
:102C800036FE03C0692D70E002C06FEF7FEFC50113
:102C90002DD14C01F32DF0683F2E820133FC19C079
:102CA000822D90E088169906A0F4B60180E290E0AB
:102CB00033D12A94F5CFF50137FC859137FE819108
:102CC0005F01B60190E028D121102A9421E0821AF8
:102CD00091088114910479F7E1C0843611F08936A6
:102CE00039F5F80137FE07C06081718182819381D7
:102CF0000C5F1F4F08C060817181072E000C880B8C
:102D0000990B0E5F1F4FF32DFF763F2E97FF09C0E3
:102D100090958095709561957F4F8F4F9F4FF0688C
:102D20003F2E2AE030E0A30133D1882E861844C01C
:102D3000853731F4232D2F7EB22E2AE030E025C0D6
:102D4000932D997FB92E8F36C1F018F4883579F01C
:102D5000AEC0803719F0883721F0A9C0E92FE061B3
:102D6000BE2EB4FE0DC0FB2DF460BF2E09C034FE94
:102D70000AC0292F2660B22E06C028E030E005C028
:102D800020E130E002C020E132E0F801B7FE07C0E8
:102D900060817181828193810C5F1F4F06C06081C9
:102DA000718180E090E00E5F1F4FA301F1D0882E6B
:102DB0008618FB2DFF773F2E36FE0DC0232D2E7F6C
:102DC000A22E891458F434FE0BC032FC09C0832DA6
:102DD0008E7EA82E05C0B82CA32C03C0B82C01C031
:102DE000B92CA4FE0FC0FE01E80DF11D80818033D7
:102DF00021F49A2D997EA92E09C0A2FE06C0B39493
:102E0000B39404C08A2D867809F0B394A3FC10C053
:102E1000A0FE06C0B21480F4280C922C9B180DC0A2
:102E2000B21458F4B60180E290E076D0B394F8CFB3
:102E3000B21418F42B1802C0982C212CA4FE0FC039
:102E4000B60180E390E068D0A2FE16C0A1FC03C0EA
:102E500088E790E002C088E590E0B6010CC08A2DBA
:102E6000867851F0A1FE02C08BE201C080E2A7FC8F
:102E70008DE2B60190E050D0891430F4B60180E3C1
:102E800090E04AD09A94F8CF8A94F301E80DF11DAE
:102E90008081B60190E040D08110F6CF222009F465
:102EA0004ECEB60180E290E037D02A94F7CFF601FB
:102EB0008681978102C08FEF9FEF2B960FB6F89413
:102EC000DEBF0FBECDBFDF91CF911F910F91FF905D
:102ED000EF90DF90CF90BF90AF909F908F907F90BA
:102EE0006F905F904F903F902F900895FC01059058
:102EF000615070400110D8F7809590958E0F9F1FFC
:102F00000895FC016150704001900110D8F7809540
:102F100090958E0F9F1F08950F931F93CF93DF936C
:102F2000FB01238121FD03C08FEF9FEF2CC022FF07
:102F300016C046815781248135814217530744F4D6
:102F4000A081B1819D012F5F3F4F318320838C93FE
:102F5000268137812F5F3F4F3783268314C08B0133
:102F6000EC01FB010084F185E02D1995892BE1F638
:102F7000D80116968D919C911797019617969C9360
:102F80008E931697CE01DF91CF911F910F910895E7
:102F9000FA01AA27283051F1203181F1E8946F938A
:102FA0006E7F6E5F7F4F8F4F9F4FAF4FB1E03ED030
:102FB000B4E03CD0670F781F891F9A1FA11D680FCE
:102FC000791F8A1F911DA11D6A0F711D811D911D01
:102FD000A11D20D009F468943F912AE0269F112476
:102FE0003019305D3193DEF6CF010895462F4770DA
:102FF000405D4193B3E00FD0C9F7F6CF462F4F7035
:10300000405D4A3318F0495D31FD4052419302D092
:10301000A9F7EACFB4E0A695979587957795679538
:10302000BA95C9F700976105710508959B01AC0138
:103030000A2E06945795479537952795BA95C9F75F
:10304000620F731F841F951FA01D0895F894FFCF72
:1030500049444C45004361745361740D0A002D2DA1
:103060002D2D2D2D2D2D2D2D2D2D2D2D2D2D0D0AD3
:1030700000496E697469616C697A696E6720616E76
:10308000642054657374696E672E2E2E0D0A0057E6
:1030900032355133323A2025640D0A00424D503307
:1030A00039303A2025640D0A00424E4F3035353A0A
:1030B0002025640D0A005461736B20746F207265C3
:1030C000636569766520636F6D6D616E64732066FC
:1030D000726F6D2067726F756E64005374617274E5
:1030E000696E672E2E2E0D0A0075706C6F61646913
:1030F0006E6720636F64650D0A0066696E616C20FF
:103100007061636B65740D0A00526563656976656D
:103110006420436865636B73756D3A20253032789F
:103120000D0A00536F6D657468696E672077656E70
:10313000742077726F6E67210D0A0044726F707091
:10314000656420616E20696E76616C6964207061CF
:10315000636B65742E0D0A0077726974696E67205F
:103160007061676521005374617274696E672066CF
:10317000726F6D20616464726573733A20307825D4
:103180003036780D0A002B2530346420007C202551
:1031900030327820007C0D0A0077726974696E679E
:1031A000206E65772070616765210043616C6375EF
:1031B0006C6174656420436865636B73756D3A2058
:0831C000253032780D0A0000F1
:00000001FF
